:020000040000fa
:080000000002040000000000f2
:020000040000fa
:0400080032030000bf
:020000040000fa
:04000c0032030000bb
:020000040000fa
:0400100032030000b7
:020000040000fa
:0400140032030000b3
:020000040000fa
:0400180032030000af
:020000040000fa
:04001c0032030000ab
:020000040000fa
:0400200032030000a7
:020000040000fa
:0400240032030000a3
:020000040000fa
:04002800320300009f
:020000040000fa
:04002c00320300009b
:020000040000fa
:040030003203000097
:020000040000fa
:040034003203000093
:020000040000fa
:04003800320300008f
:020000040000fa
:04003c00320300008b
:020000040000fa
:040040003203000087
:020000040000fa
:040044003203000083
:020000040000fa
:04004800320300007f
:020000040000fa
:04004c00320300007b
:020000040000fa
:040050003203000077
:020000040000fa
:040054003203000073
:020000040000fa
:04005800320300006f
:020000040000fa
:04005c00320300006b
:020000040000fa
:040060003203000067
:020000040000fa
:040064003203000063
:020000040000fa
:04006800320300005f
:020000040000fa
:04006c00320300005b
:020000040000fa
:040070003203000057
:020000040000fa
:040074003203000053
:020000040000fa
:04007800320300004f
:020000040000fa
:04007c00320300004b
:020000040000fa
:040080003203000047
:020000040000fa
:040084003203000043
:020000040000fa
:04008800320300003f
:020000040000fa
:04008c00320300003b
:020000040000fa
:040090003203000037
:020000040000fa
:040094003203000033
:020000040000fa
:04009800320300002f
:020000040000fa
:04009c00320300002b
:020000040000fa
:0400a000e00200007a
:020000040000fa
:0400a400cc0200008a
:020000040000fa
:0400a800320300001f
:020000040000fa
:0400ac00320300001b
:020000040000fa
:0400b0003203000017
:020000040000fa
:0400b4003203000013
:020000040000fa
:0400b800320300000f
:020000040000fa
:0400bc00320300000b
:020000040000fa
:0400c0003203000007
:020000040000fa
:0400c4003203000003
:020000040000fa
:0400c80032030000ff
:020000040000fa
:0400cc0032030000fb
:020000040000fa
:0400d00032030000f7
:020000040000fa
:0400d40032030000f3
:020000040000fa
:0400d80032030000ef
:020000040000fa
:0400dc0032030000eb
:020000040000fa
:0400e00032030000e7
:020000040000fa
:0400e40032030000e3
:020000040000fa
:0400e80032030000df
:020000040000fa
:0400ec0032030000db
:020000040000fa
:0400f00032030000d7
:020000040000fa
:0400f40032030000d3
:020000040000fa
:0400f80032030000cf
:020000040000fa
:0400fc0032030000cb
:020000040000fa
:0401000032030000c6
:020000040000fa
:0401040032030000c2
:020000040000fa
:0401080032030000be
:020000040000fa
:04010c0032030000ba
:020000040000fa
:0401100032030000b6
:020000040000fa
:0401140032030000b2
:020000040000fa
:0401180032030000ae
:020000040000fa
:04011c0032030000aa
:020000040000fa
:0401200032030000a6
:020000040000fa
:0401240032030000a2
:020000040000fa
:04012800320300009e
:020000040000fa
:04012c00320300009a
:020000040000fa
:040130003203000096
:020000040000fa
:040134003203000092
:020000040000fa
:04013800320300008e
:020000040000fa
:04013c00320300008a
:020000040000fa
:040140003203000086
:020000040000fa
:040144003203000082
:020000040000fa
:04014800320300007e
:020000040000fa
:04014c00320300007a
:020000040000fa
:040150003203000076
:020000040000fa
:040154003203000072
:020000040000fa
:04015800320300006e
:020000040000fa
:04015c00320300006a
:020000040000fa
:040160003203000066
:020000040000fa
:040164003203000062
:020000040000fa
:0402080032030000bd
:020000040000fa
:04020c0032030000b9
:020000040000fa
:0402100032030000b5
:020000040000fa
:0402140032030000b1
:020000040000fa
:0402180032030000ad
:020000040000fa
:04021c0032030000a9
:020000040000fa
:0402200032030000a5
:020000040000fa
:0402240032030000a1
:020000040000fa
:04022800320300009d
:020000040000fa
:04022c003203000099
:020000040000fa
:040230003203000095
:020000040000fa
:040234003203000091
:020000040000fa
:04023800320300008d
:020000040000fa
:04023c003203000089
:020000040000fa
:040240003203000085
:020000040000fa
:040244003203000081
:020000040000fa
:04024800320300007d
:020000040000fa
:04024c003203000079
:020000040000fa
:040250003203000075
:020000040000fa
:040254003203000071
:020000040000fa
:04025800320300006d
:020000040000fa
:04025c003203000069
:020000040000fa
:040260003203000065
:020000040000fa
:040264003203000061
:020000040000fa
:04026800320300005d
:020000040000fa
:04026c003203000059
:020000040000fa
:040270003203000055
:020000040000fa
:040274003203000051
:020000040000fa
:04027800320300004d
:020000040000fa
:04027c003203000049
:020000040000fa
:040280003203000045
:020000040000fa
:040284003203000041
:020000040000fa
:04028800320300003d
:020000040000fa
:04028c003203000039
:020000040000fa
:040290003203000035
:020000040000fa
:040294003203000031
:020000040000fa
:04029800320300002d
:020000040000fa
:04029c003203000029
:020000040000fa
:0402a0003203000025
:020000040000fa
:0402a4003203000021
:020000040000fa
:0402a800320300001d
:020000040000fa
:0402ac003203000019
:020000040000fa
:0402b0003203000015
:020000040000fa
:0402b4003203000011
:020000040000fa
:0402b800320300000d
:020000040000fa
:0402bc003203000009
:020000040000fa
:0402c0003203000005
:020000040000fa
:0402c4003203000001
:020000040000fa
:0402c80032030000fd
:020000040000fa
:0402cc0032030000f9
:020000040000fa
:0402d00032030000f5
:020000040000fa
:0402d40032030000f1
:020000040000fa
:0402d80032030000ed
:020000040000fa
:0402dc0032030000e9
:020000040000fa
:0402e00032030000e5
:020000040000fa
:0402e40032030000e1
:020000040000fa
:0402e80032030000dd
:020000040000fa
:0402ec0032030000d9
:020000040000fa
:0402f00032030000d5
:020000040000fa
:0402f40032030000d1
:020000040000fa
:0402f80032030000cd
:020000040000fa
:0402fc0032030000c9
:020000040000fa
:0403000032030000c4
:020000040000fa
:0403040032030000c0
:020000040000fa
:0403080032030000bc
:020000040000fa
:04030c0032030000b8
:020000040000fa
:0403100032030000b4
:020000040000fa
:0403140032030000b0
:020000040000fa
:0403180032030000ac
:020000040000fa
:04031c0032030000a8
:020000040000fa
:0403200032030000a4
:020000040000fa
:0403240032030000a0
:020000040000fa
:04032800320300009c
:020000040000fa
:04032c003203000098
:020000040000fa
:040330003203000094
:020000040000fa
:040334003203000090
:020000040000fa
:04033800320300008c
:020000040000fa
:04033c003203000088
:020000040000fa
:040340003203000084
:020000040000fa
:040344003203000080
:020000040000fa
:04034800320300007c
:020000040000fa
:04034c003203000078
:020000040000fa
:040350003203000074
:020000040000fa
:040354003203000070
:020000040000fa
:04035800320300006c
:020000040000fa
:04035c003203000068
:020000040000fa
:040360003203000064
:020000040000fa
:040364003203000060
:020000040000fa
:10040000cf9c20000e7f24000e0188000000000019
:10041000000020000000e000020032000001200087
:100420002002880014000700a40007000000e0007c
:1004300003003a0040432100010020000200370081
:100440000000200001002000810f70000100320038
:1004500014000700000020000000e000020032004d
:100460000000020000000000ea130200000000008b
:100470000040da000000fe004440a900e01820001f
:100480000000e0000300320000002000a00188000e
:100490004440a800000006008a1f78008b1f7800e7
:1004a0000000060091018800800478000000eb0045
:1004b0001a003700e284440032a0b4009905ba0063
:1004c000e284440032a0b4009906ba00e2844400f9
:1004d00032a0b4000006eb00476fde00fd07b2005b
:1004e000636ce10003003a00ebff07000000eb0043
:1004f0000a003700606ce10004003a00005deb0088
:100500008b05e900fdff3e00040037006168e10053
:10051000010032000086eb000b00070019c7ba008b
:100520001905ba000e04e00003003a000a00e000da
:10053000e0ff3a0000000600fe07b2009e018800be
:100540008a047800f5ff3700395dba008b05e900b1
:100550000c003200295dba008b05e900080032006a
:100560000c00e00003003a00e284440032a0b40032
:10057000f5ff370019ddba008b05e900faff3a00f4
:100580008904e800e184440032a0b40000000600c1
:100590006e060400000000003400f800881f780098
:1005a00008002000a80188004f0478000000fa002d
:1005b00087e0a9000080fa003400f900004006003e
:1005c000809fbe00821f78003400f80000002000e9
:1005d000a00188000200fa00b0118000004f7800ee
:1005e000704280000074a1000080fb00fc0f5000ee
:1005f00016003c00704280000074a1000081fb00e6
:1006000001832000810041009e4878000040e800fe
:100610000074a1008080fb00f007200000806000d3
:100620007242800001f82f0081006100010070001b
:100630007042880000408000618020001e417800e8
:10064000827078000000e8000040880087c0a900a0
:100650000080fa003400f9004f0178004f00be001e
:10066000004006000040da000000fe000600fa002c
:10067000200798002e0090006e01070010079800d8
:100680000000eb00000f7800060037001e00780025
:10069000ae0090000080400010407800f70707008f
:1006a0001e0fe8001e0090009e007800808f500012
:1006b000f6ff35000080fa0000000600000005008b
:1006c0006022b800060220000000d0008180d20025
:1006d0000482d2008582d2000000a00002025200f3
:1006e00083825a00030031000202420083824a00e2
:1006f0000000a1000603e900f3ff3a000000060035
:10070000889fbe008a9fbe0030044200b0844a0029
:1007100030054b0090854b006000b1000898be008a
:100720000a90be000440e10005c8e10006d0e100e7
:1007300007d8e10002003100680040001008e8001e
:100740004f05be004f04be0000000600889fbe009b
:100750008a9fbe003004be002005be00041854006d
:1007600005985c0006185d0007985d0011002000e8
:100770000440e10005c8e10006d0e10007d8e1002f
:10078000010039008000eb00108810004f05be000a
:100790004f04be00000006001200fa00889fbe0051
:1007a0008a9fbe008c9fbe00e0b79f00f1b79f00fc
:1007b00082bf9f0093bf9f000605be000404be00d9
:1007c0000000eb00d0b79f00c0b79f00b0b79f00fc
:1007d000a0b79f0090b79f000006eb005fb19700a5
:1007e000cfb09700820141003fb097000200e000c7
:1007f00004003d00370007007e805700c0ff07005f
:1008000003003700330007007e805700cfff07004a
:10081000dfb697000d00e0000c0035006fb29700c6
:10082000ffb297000fbb97009fbb970010002000fe
:10083000010020006011b800000272008182720085
:1008400002037300838373001b0007000c06e8009b
:1008500001042000810f5600e0ff3a000d00e00087
:1008600004003d000802be000a03be007e8057005f
:10087000a3ff07005fa897000000e00005003a0012
:100880001fb29700afb297003fb39700cfb3970066
:10089000090007006fb09700ffb097000fb99700ed
:1008a0009fb997004f06be004f05be004f04be0023
:1008b0000080fa00000006000100070000000600aa
:1008c000a4b79f00b5b79f00c6b79f00d7b79f00da
:1008d000000006004f09de0082817100b3b79f005f
:1008e0004f01de008180400082807000a1b79f0030
:1008f0008fb097004f09de0000004000020070003a
:1009000090b79f007fa897004f01de0081804000d4
:100910008280700081b79f000d0007004f3ade0013
:100920000000400004007000f0af9f0008000700c6
:100930000402420085824a0006034b0087834b0075
:10094000dfff07000802be000a03be000000060029
:100950002fb29700bfb297004fb39700dfb3970055
:1009600000000600881f780018002000881f78000b
:1009700089ff07008f87e9004f0478000000060018
:10098000801feb0084ff07008f87e900000006004e
:10099000889fbe008a9fbe00e00f5000e08f580085
:1009a000e00f5900e08f59000c003d006044b80092
:1009b0006055b8000000540081805c0002015d00b9
:1009c00083815d00180020001500070008003d002d
:1009d000180007000004eb00050037000004eb00de
:1009e0000f00070002003d00120007001800200061
:1009f000dcff07000800e000060032006022b800bb
:100a00006033b8000000520081805a0002015b0090
:100a100083815b004f05be004f04be00000006004e
:100a2000e00f5200e08f5a00e00f5b00e08f5b00a8
:100a3000000006006044b8006055b800040254008d
:100a400085825c0006035d0087835d000000060070
:100a5000889fbe008a9fbe008c1f7800e00f500068
:100a6000e08f5800e00f5900e08f59000d003d0065
:100a70006044b8006055b8000000540081805c00fc
:100a800002015d0083815d001c0020000820e10060
:100a900009a8e1000ab0e1000bb8e1000d003d003b
:100aa000080037000006eb00e00f5200e08f5a000c
:100ab000e00f5b00e08f5b0006003d006044b80083
:100ac0006055b8000402540085825c0006035d0096
:100ad00087835d00aaff07000c00e00006003200db
:100ae0006022b8006033b8000000520081805a00d4
:100af00002015b0083815b004f0678004f05be005a
:100b00004f04be0000000600889fbe008a9fbe0002
:100b10008c1f78000006eb00e00f5000e08f5800bb
:100b2000e00f5900e08f590007003d006044b80015
:100b30006055b8000000540081805c0002015d0037
:100b400083815d001c002000e00f5200e08f5a00fe
:100b5000e00f5b00e08f5b0007003d006044b800e1
:100b60006055b8000402540085825c0006035d00f5
:100b700087835d000c00a2000c0007000c00e00061
:100b8000060032006022b8006033b8000000520056
:100b900081805a0002015b0083815b004f06780070
:100ba0004f05be004f04be0000000600889fbe0037
:100bb0008a9fbe008c9fbe000404b8000506b800e2
:100bc0008904460060854e000606b8000a05460006
:100bd000e0854e000706b8008b054600040eb800fd
:100be000890446000a854e00e0854d00050eb800d8
:100bf0000a0546008b854e00060eb8008b054600a0
:100c00000416b8000a0546008b854e000516b8008c
:100c10008b054600041eb8008b0546000800be0088
:100c20000a01be004f06be004f05be004f04be00c5
:100c30000000060080007800010178003104e00027
:100c4000fdff3a000000510000000600889fbe0032
:100c500081047800194478000804e0000e00320096
:100c600006003700d24178000304e0000a00320099
:100c7000d1cf1100fbff32000000e8008800fb002c
:100c8000070007000000e0000300320009017800bf
:100c900080007800f3ff37004f04be00000006001c
:100ca0000001eb00030037000201e8000404e0004b
:100cb000070032006103b8006112b80086014200eb
:100cc00066427a00814f5200f7ff3a000100370078
:100cd0008001eb000300780000000600881f780008
:100ce0000204780008017800f901070008004000bc
:100cf0004f047800000006000000fa00881f78000a
:100d000000047800ea8157003fb997008800780016
:100d1000e0662000070007000000e0000200350048
:100d20008040eb00017478004f0478000080fa00e6
:100d3000000006006200fa00889fbe008a1f78004b
:100d400000057800810478000204780083007800b0
:100d500080f92f000f004000cf0307009a979f00f3
:100d6000a9979f000000eb00b09f9f001885fb0033
:100d70008a04fb000a05ea004f55de0050022000fd
:100d8000808f54000d003200e10f55000b003a0037
:100d90000a017800880078002f9097009f919700b3
:100da00003000100a0979f000000e0008e003200c9
:100db0003f9897000000e800b09f9f000a0444009d
:100dc00050022000808f5400040032000900e0002f
:100dd000e6ff3a003f989700840037000000eb00e0
:100de000909f9f00809f9f00f0979f00e0979f003b
:100df000d0979f00c0979f0007003700619c20009c
:100e00000100500000004000a19b2000610078001c
:100e1000df98970001007000d09f9f008804780041
:100e200009047800384578008a00fb00609c2000a7
:100e30009bff07000000e000f0ff3a00a1c2b300f2
:100e4000814f55000e003a00cf8897000180e900dd
:100e5000c08f9f0010007800c09f9f000000e0003e
:100e600005003d000000ea00c09f9f005f989700ca
:100e70000020a000d09f9f000904e8000f00370069
:100e8000c09f9f000000eb0005003700f2ff270025
:100e9000820f5000020032006a01b9000280400057
:100ea0000904780088047800b900fb000103b10050
:100eb000e98f5000f5ff3600c09f9f00e0c2b300ed
:100ec000984f1000020032000080eb00190037003c
:100ed000a0c2b300d84f100007003a00cf88970097
:100ee0000180e900c08f9f0010007800a09f9f0044
:100ef0000804e800100037000000eb00a09f9f00ee
:100f00008800780005003700f3ff2700830f5000aa
:100f1000020032006a02b9000400410001047800b6
:100f2000880078003101fb000203b100e90f510095
:100f3000f5ff3600a09f9f00984478008900fb00d1
:100f4000209b200056ff07000000e0000200320056
:100f50000804e800010037008044eb00c97f9f00cf
:100f600080c6b30080cf540004003a0098cf14002c
:100f70000a003a006640500006003700c0c6b300c1
:100f800080cf540005003a0098cf140003003a00c7
:100f900065404000c07f9f000804e8001801fb0086
:100fa000e3fb2f008f81410081f92f008f804000eb
:100fb000a0f92f000f004000100007000000e00023
:100fc00009003a00e1fb2f008f804000a0f92f00bc
:100fd0000f004000740207000000e000020035002e
:100fe0000804e80061ff37000080eb004f0578003f
:100ff0004f04be000080fa0000000600889fbe007b
:101000008a1f780000047800e0c6b300804f5100ca
:10101000c100320015003c006b405000804f510071
:10102000240032000a003c0070405000804f510004
:10103000fa00320065404000804f510068003200e5
:1010400050c2b300804f51000b013a000701370036
:1010500040c6b300804f51001b0032006540400085
:10106000804f510004013a001700370030c7b30029
:10107000804f5100e900320007003c0064405000fe
:10108000804f5100560032000040e800804f510070
:10109000f9003a00d300370050c7b300804f510029
:1010a0004f00320063404000804f5100f2003a0090
:1010b0004b0037001181e900820878007800900029
:1010c00012417800ea00370028609000c4c6b300df
:1010d000844f500007003a0011027800640052006b
:1010e000800878001002be004fabde008603780057
:1010f0001100370014c7b300844f500003003200c2
:10110000a4c6b300844f500006003a0011027800d4
:1011100068005200800878003002be002003be0044
:10112000050037001180e90080087800100278007f
:10113000cfa2de00612bb900049cbe000694be0065
:101140002860900081c6b300814f50000d0032002e
:1011500021c6b300814f500004003a000402fb0096
:10116000cfa2de00612bb9000800370041c7b300f1
:10117000814f500003003200e6c04000814f500014
:1011800004003a00cfa2de00612bb900049cbe002f
:101190000694be003802be002803be00780090000e
:1011a000d1c2b300e00f5200e08f5a00e00f5b00a5
:1011b000e08f5b0008003500881090000118a30044
:1011c00002003200b1c2b300030037000108a300df
:1011d0004c00320001c2b300817178004700370033
:1011e00028609000c4c6b300844f500006003a0047
:1011f0001102780064005200800878001002be00de
:101200006033b8001100370014c7b300844f50009a
:1012100003003200a4c6b300844f500006003a0019
:101220001102780068005200800878003002be0089
:101230002003be00050037001180e9008008780017
:10124000100278008002eb006033b800049cbe00fe
:101250000694be002860900081c6b300814f500004
:101260000d00320021c6b300814f500004003a0047
:101270000482fb008002eb006033b80008003700f6
:1012800041c7b300814f500003003200e6c0400068
:10129000814f500004003a008002eb006033b80038
:1012a000049cbe000694be00081090000038a30005
:1012b000140032003802be002803be00e00f5200c6
:1012c000e08f5a00e00f5b00e08f5b000d00320002
:1012d00080c7b300804f51000300320080c5b300c7
:1012e000804f510007003a007800900001c3b3001e
:1012f000817178000000e800827178000000e80049
:101300007004980078009000808141006304980088
:10131000824078003e00370028619000c3c6b300c9
:101320001180e900834f5100220032000a003c0086
:10133000e4c15100834f51002500320083c1e80011
:10134000834f510013003200e8c15100834f510018
:101350001e003a000a00370043c7b300834f510014
:101360001b003200e6c14100834f510018003200db
:10137000e9c15100834f510014003a0005003700c5
:101380008008780010007800485c900008487800d9
:10139000410037008008780010007800680a90004b
:1013a000cfa2de00612bb9000498be000690be00fb
:1013b0003900370080087800100078006809900034
:1013c000cf91de000288be00330037001180e900b3
:1013d0008008780010007800680c900008087800f9
:1013e0002d0037001180e900800878001002780095
:1013f000cfa2de00612bb900049cbe000694be00a3
:1014000078009000808141006304980081c7b30098
:1014100008007800350007001f0037001180e90040
:1014200080087800100578006a049800d80c9000b5
:101430000900e00004003d000a007800fdfd0700ff
:101440008004780007003700090178008000eb0075
:101450000a007800140007000000e00001003200dc
:101460008a045000190c98000b0037007800900097
:10147000827178000600370078009000808141007a
:101480000204e00001003a0052c2b3008249780031
:101490000000e800700498000000eb004f057800a1
:1014a0004f04be000000060003003700b0cf10005c
:1014b000050032000201e900800178000200e0002e
:1014c000faff3a0000000500030078000000060063
:1014d0008001780002003700b15978000201e9006c
:1014e0000200e000fcff3a0000000600fc87470015
:1014f000889fbe008a9fbe008c9fbe008e1f780012
:101500000006780080c5b30080cf50000a0032008a
:101510007740400080cf50000a0032006940400010
:1015200080cf50000b003200109a200080bf9f0037
:10153000ae0020000a0037000299200082bf9f0001
:1015400006003700139a200083bf9f008e00200002
:1015500003003700149a200084bf9f000e01200072
:101560003c02be002c03be000605be000404be0003
:1015700040c6b30080cf50000300320065404000f9
:1015800080cf50000b003a00e00f5200e08f5a006d
:10159000e00f5b00e08f5b0006003d006000b800dc
:1015a0006011b800040450008584580006055900f5
:1015b00087855900e80f57000400320040002000e2
:1015c000f00f570038003a000100370030002000cb
:1015d000e00f5400e08f5c00e00f5d00e08f5d00e5
:1015e00004003a00dc0890008d0120000100e000ba
:1015f000060032008e00e900888060008fba9700f4
:10160000e5c07800f1ef9f007d01200080007800a8
:101610008100e900050033008b05d1000a85d30065
:101620008984d3000884d300f9ff3700089ebe00e8
:101630000a96be00120037008d06e9008e00e90010
:10164000848060000fb99700e2c1780082fd2f000e
:101650000f01410003f17e00800078008100e90065
:10166000050033008783d1000683d3008582d30031
:101670000482d300f9ff3700049ebe000696be0028
:101680003c02be002c03be00e00f5200e08f5a0067
:10169000e00f5b00e08f5b008b0034000d00e0008a
:1016a000e5ff3c00880037002c60900081c6b30045
:1016b000814f50000b00320006003c000004e000a7
:1016c00008003200e6c05000814f50004e003a0042
:1016d00004003700c1c6b300814f50004a003a00f1
:1016e000210037000800e00004003a005c08900088
:1016f0008d0120000000e00006003200110009000a
:101700000e84d8000fb99700e2c07800f1ef9f0077
:101710007d012000110009000e84d8000a00370066
:10172000110009000e04d8008d06e9000e81b900f1
:10173000020454008fb8970061417c0081fd2f00a6
:101740008f80400082f07e00000478000800e000f6
:10175000020032000d00e000f1ff3c00cfc4de00cb
:10176000614db90025003700e00f5400e08f5c00a8
:1017700004003a005c0890008d0120000000e000a9
:10178000070032006171b9000800be005301070074
:101790008fb99700e3417800f3ef9f007d012000af
:1017a0006171b9000800be00c5fb07000b003700df
:1017b0006171b9000800be00390107008d06e9001b
:1017c00000f1b900020454000fba9700e4427c0013
:1017d00084fd2f000f02420005f27e000004be00cf
:1017e000e00f5000e08f5800020032000d00e000d2
:1017f000efff3c004fcdde008a057800089ebe005a
:101800000a96be0030003700e00f5400e08f5c0005
:10181000e00f5d00e08f5d0004003a005c0890007e
:101820008d0120000000e000090032006172b90063
:10183000612bb9000800be000a01be0050fc070081
:101840000fba970064427800f4ef9f007d012000fa
:101850006172b900612bb9000800be000a01be0028
:1018600040fc07000d0037006172b900612bb90020
:101870000800be000a01be0045fc07008d06e90015
:1018800000f2b900040454008fba970065427c004e
:1018900085fd2f008f82420084f27e00009ebe00f4
:1018a0000296be003c04be002c05be00e00f5400b2
:1018b000e08f5c00e00f5d00e08f5d00020034000f
:1018c0000d00e000e8ff3c00e80f570010003a0070
:1018d0000c1090000038a3000d003200f78f560066
:1018e00006003e0085fd2f008f824200e5c07e008d
:1018f00000c3b30080cf5000050032008d06e90020
:1019000002c3b30081fd2f008f80400082f07e0073
:1019100078811600120e98006c00900083fd2f0055
:101920008f8141008d804100e9fe07001c08900076
:10193000dc089000810f500006003d000080500040
:10194000000e98000c1090000040a10000169800b6
:101950000f0037000100e0000d003d008c109000ea
:10196000f4806000f08f500009003a007c0990007c
:10197000fc009000810051000c0990008280500012
:10198000008050004240a90001003400000e980081
:101990004f0778004f06be004f05be004f04be0043
:1019a000cf01b100000006000400fa00889fbe00cd
:1019b0008a9fbe008c1f7800000478000106780022
:1019c000f80d900078009000808555000808900080
:1019d00080855500180890008085550028089000e3
:1019e0008085550038089000808555004808900093
:1019f000808555000002220090bf9f000003230055
:101a0000a0bf9f00081090000028a30015003a0016
:101a10000b00e000130034000b0578008a04780006
:101a2000e20f55000100360029002000c801900097
:101a300009017800ee805700580090000300010073
:101a4000500498000000e0008c003200680890000c
:101a500009004000600c9800090555004240a900ab
:101a6000eeff3c00780190000200e0000c00340022
:101a7000c80190008c00780058009000030001001d
:101a8000500498008080eb000000e0007c003200f1
:101a9000e80890007800900000804000600c9800fa
:101aa000880c90000900e00011003400090578005e
:101ab000e28f5400010036002a002000c801900087
:101ac0000a017800ec8057005800900003000100e4
:101ad000500498000000e0006800320068089000a0
:101ae0000a004000600c98008a845400edff370023
:101af000180990000200e0000c003400c8019000ba
:101b0000e800900058009000030001005004980085
:101b10008080eb000000e00059003200e8089000ef
:101b20001808900000804000600c9800a80c9000fd
:101b30000900e0001100340009057800e28f54002c
:101b4000010036002a002000c80190000a01780038
:101b5000ec805700580090000300010050049800ea
:101b60000000e00045003200680890000a004000d4
:101b7000600c98008a845400edff3700380990000b
:101b80000200e0000e003400e80090001808900009
:101b900080804000c80190005800900003000100c0
:101ba000500498008080eb000000e0003400320018
:101bb000e80890003808900000804000600c980011
:101bc000c80c90000900e0001100340009057800fd
:101bd000e28f5400010036002a002000c801900066
:101be0000a017800ec8057005800900003000100c3
:101bf000500498000000e0002000320068089000c7
:101c00000a004000600c98008a845400edff370001
:101c1000081090008000eb000028a300180032009c
:101c20000b00e000160034008b04780009057800f2
:101c3000e28f5400010036002a002000c801900005
:101c40000a017800ee805700580090000300010060
:101c5000500498000000e00008003200680890007e
:101c60000a004000600c98008a8454004240a90099
:101c7000eeff3c008000eb00010037008080eb00ad
:101c8000010078004f0678004f05be004f04be00eb
:101c90000080fa000000060001087800000006003d
:101ca000839f68000100e00002003d00600010001a
:101cb000e08018000300e00002003d006001110018
:101cc000e08119007efa07004f00e00002003b00af
:101cd00060001000e08018000000060078fa07009d
:081ce0000400be000000060034
:020000040000fa
:101ce800415400002b4300004950000053450000b8
:101cf8004e4400003d250000642c000025640000cf
:101d08000d0a0000003e00002000000053450000be
:101d18004e440000204f00004b0000004f4b0000d5
:101d280000410000540d00000a0000007265000028
:101d38006164000079000000415400002b5200004b
:101d4800535400000d0a000000410000542b00000d
:101d5800435700004d4f0000444500003d3100004e
:101d68000d0a000000410000542b000043570000fa
:101d78004d4f0000444500003d3200000d0a0000b0
:101d880000410000542b0000435700004d4f000055
:101d9800444500003d3300000d0a000000410000ea
:101da800542b0000435700004a410000503d0000fa
:101db80022250000732200002c2200002573000059
:101dc800220d00000a000000434f00004e4e0000a4
:101dd8004543000054450000440000004154000001
:101de8002b43000057530000415000003d220000e3
:101df80025730000222c0000222500007322000019
:101e08002c3100002c250000730d00000a00000092
:101e180054430000500000002225000073220000f7
:101e28002c22000025730000222c000025730000de
:101e38000d0a000000550000445000000041000059
:101e4800542b000043490000505300005441000047
:101e5800525400003d250000642c0000257300004a
:101e68000d0a000000410000542b00004349000007
:101e78005053000054410000525400003d2500001a
:101e8800730d00000a000000414c0000524500009c
:101e980041590000204300004f4e00004e4500000d
:101ea80043540000002b0000435700004d4f000032
:101eb800444500003a32000000410000542b000065
:101ec800435700004d4f0000444500003f0d0000ff
:101ed8000a0000002b430000574d00004f4400004b
:101ee800453a000031000000340000007a78000014
:101ef8003435000032320000333300003100000076
:101f08004b4500004e000000415400002b430000e8
:101f1800495000004d550000583d0000300d0000ac
:101f28000a000000415400002b4300004950000003
:101f38004d4f0000444500003d3000000d0a0000f0
:101f480000410000542b000043490000504d0000a0
:101f5800555800003d3100000d0a00000041000006
:101f6800542b000043490000505300004552000024
:101f780056450000523d0000312c0000353000006d
:101f8800303000000d0a000000410000542b000012
:101f98004357000051410000500d00000a000000a6
:101fa8003132000033340000353600003735000088
:101fb800004b0000656e00006700000041540000ff
:101fc8002b430000495000004d4f000044450000dd
:101fd8003d3100000d0a00000035000030300000df
:101fe8003000000031370000322e0000323000008f
:0c1ff8002e310000302e000031000000ef
:020000040000fa
:102004000800fa00000f78001107980022079800d2
:10201400330798007142800000f82f0000806000b0
:10202400704288000028ef001e0078008ef9070037
:102034001e0090000000e00005003a002e00900011
:102044000000e00002003a0010c0b300380037007e
:102054003e0090008000eb006011b80004a0250051
:10206400252620006033b800a6fa0700843e20002d
:10207400050020006033b80039fa07000000be00f4
:102084001a020700704280000074a1008080fb00e7
:1020940000832000008040008040eb00014878006d
:1020a400704280000070a000704288001e00900002
:1020b4000000e000120032002e0090000000e0005a
:1020c4000f0032009e00900000832000defa07001b
:1020d4000000e00005003a00ae00900000832000fc
:1020e400d9fa07000000e0000200320010002000ce
:1020f400010037000000eb00004078000c003700be
:102104001e0090000000e000050032009e009000d8
:1021140000832000ccfa0700004078000400370058
:10212400ae00900000832000c7fa0700004078004a
:102134000080fa00000006001c00fa0060579800b6
:10214400410f9800520f98000000eb00000f780038
:102154005e0890000081e8006e5090008080fb00d3
:102164000e80e800821f7800811f780041e7280074
:10217400811f7800dffa0700e68757000e80e80029
:10218400833e20000001eb0071e828009cff07005b
:10219400833e20000001eb00a1e828004e089000d7
:1021a40097ff07000080fb00000f78001e007800f6
:1021b400004078000080fa00000006000000fa00e9
:1021c40000000000833e20000001eb0021e928000c
:1021d40050e928008aff07000004e000f9ff3200fc
:1021e4000080fa00000006000000fa00c3da2000b4
:1021f400a2e9280021e9280000ea280080ff07005e
:102204000080fa00000006000200fa00000f7800c7
:102214001e007800e10f50000b003200e10f500067
:1022240003003900e20f50000d00320012003700a5
:10223400439c20000001eb0021e9280090ea2800db
:102244006fff07000d003700439c20000001eb00e6
:1022540021e9280070eb280069ff07000700370018
:10226400439c20000001eb0021e9280050ec2800e9
:1022740063ff0700010037000040eb000080fa0014
:10228400000006007c00fa00403f9800513f98008f
:10229400de389000811f7800ce389000811f7800ce
:1022a40030ed2800801f78000e00780091fa0700b6
:1022b400e687570083b5210082ee280021e9280033
:1022c4000e0078004eff07000080fa0000000600b0
:1022d4007e00fa00403f9800513f9800623f98000a
:1022e400ee389000811f7800de389000811f78005e
:1022f400ce389000811f780020ef2800801f7800de
:102304000e0078007bfa0700e8875700833e200020
:102314000001eb0021e928000e00780038ff0700d7
:102324000080fa0000000600e400fa0060af9800a4
:1023340071af980002b7980013b7980031000900f4
:10234400001feb004e06b1006ea890000000e000f4
:1023540003003200e10f50000d0032001800370076
:102364008eb09000811f7800fea89000811f780035
:10237400c0f02800801f780000f12800801f78003a
:102384000e0078005bfa0700e88757000c0037005e
:102394008eb09000811f7800fea89000811f780005
:1023a400f0f12800801f780000f12800801f7800d9
:1023b4000e0078004ffa0700e8875700000000007d
:1023c4001eb09000e40f50000a003c0040062000bc
:1023d4000e0040008e1f78009eb09000811f780090
:1023e40031f22800811f780042fa0700e68757007f
:1023f40007003700400620000e0040008e1f7800c2
:1024040071f32800811f78003afa0700e487570027
:10241400400620000e004000431f200082f42800e4
:1024240021e92800f6fe07000080fa0000000600fb
:102434000000fa001000200073ff070000000000f5
:10244400833e200022e9280071f5280010f62800b8
:10245400ebfe07000004e000f9ff32000080fa0000
:10246400000006000000fa000000eb0066ff070011
:10247400000000004306200022e92800e1f62800bd
:1024840010f62800defe07000004e000f9ff320029
:102494000080fa00000006000000fa0047ff070071
:1024a40051ff0700e2ff07000000000082f7280048
:1024b400a1f7280040f8280085ff07000004e00089
:1024c400faff320000000000431f20000001eb006f
:1024d40021e9280080f82800c9fe07000004e00074
:1024e400f9ff320000000000833e20000001eb00f1
:1024f40021e9280060f92800c1fe07000004e0007b
:10250400f9ff320000000000431f20000001eb002f
:1025140021e9280050fa2800b9fe07000004e00071
:10252400f9ff320000000000431f20000001eb000f
:1025340021e9280030fb2800b1fe07000004e00078
:10254400f9ff32000080fa00000006000000fa00e3
:1025540025ff070019ff0700431f20000001eb00bf
:1025640021e9280090fc2800a5fe0700bdff070014
:102574000000000041fd2800d0fd280041ff0700b5
:102584000004e000fbff320000000000431f2000b5
:102594000001eb0021e9280020fe280098fe070036
:1025a4000004e000f9ff320000000000431f200097
:1025b4000001eb0021e9280080f8280090fe0700c4
:1025c4000004e000f9ff3200000000007300200066
:1025d40012ff280061ff28000000eb0052ff0700f3
:1025e4000004e000f9ff32000080fa000000060059
:1025f4000400fa00008fbe003022ef003162a80010
:102604008111800090ff2f000080600080118800fd
:102614003002a9003062a9003082a90033a2a900c7
:1026240033e2a90091118000f0f32f0000806000d4
:10263400901188001e01be00005a22006102200091
:102644001ef80700000078000000e900c0118800af
:10265400de82a800dea2a90087e0a90097e0a90015
:1026640087c0a90097c0a80031e2a8003342a8009f
:102674000080fa00000006000200fa00004f780013
:102684000000000091118000002020000080600004
:102694000000e000fbff3a001e80fb00a011880050
:1026a4000080fa00000006000400fa0045e7a900d3
:1026b4004567a900213a8000f0ff280000806000ef
:1026c400203a8800213a800000fe2f00008060003c
:1026d4002001b300203a8800e0092000303a880045
:1026e400213a8000f0f32f0000806000203a880037
:1026f40011028000f0f12f000080600010028800b9
:10270400803e2000000f78000a003700803e200041
:1027140010079800030037001e0090000000e90035
:10272400100798001e0090000000e000faff3c0033
:102734001e0fe9001e0078000000e000f3ff3c00db
:102744000080fa00000006000000fa000080eb00a0
:10275400401688000080eb00301688000080eb00f3
:10276400401688000080eb0070168800cc22ef0031
:102774000080eb00701688000080eb00a016880033
:10278400d222ef000080eb00a01688000080eb004e
:10279400d0168800d822ef000080eb00d016880005
:1027a4000080eb0000178800de22ef000080eb00c1
:1027b400001788000080eb0030178800e422ef0047
:1027c4000080eb00301788000080fa00000006004b
:1027d4000000fa00b4ff070000000000103a800077
:1027e400680060000000e000fcff3a000000000008
:1027f400113a800000002700808060000000230060
:10280400808f5000faff3a0000000000113a800067
:1028140000022000008060000000e000fbff3200a6
:10282400c9ff0700d762a80000202c00b1be200019
:102834002e000700d762a90000202c001100200000
:102844006bff070041ff0700010037000000000094
:1028540010408000e10f5000fcff3a000228ef0016
:04286400fbff37003f
:020000040000fa
:10286800060800008a0100000000000000080000bf
:102878000600000000000000b20900001a00000075
:1028880002000000686a6c00747a4c0000000100c5
:1028980000020000040008000010000000002000f2
:1028a8002b2d2300300000009009000022000000ba
:1028b800020000003031320033343500363738003a
:1028c800394142004344450046003000313233006c
:1028d8003435360037383900616263006465660054
:0828e8000000000000000000e8
:020000040000fa
:1028f000f03fb1000180b10006003500ee03090091
:1029000000000000403fb1000180b100fbff3d002e
:102910001000b000203fb000020035000080090028
:082920000000000000000600a9
:020000040000fa
:0200000401f009
:04000000ffff0000fe
:020000040000fa
:0200000401f009
:04000400ffff0000fa
:020000040000fa
:0200000401f009
:04000800faff0000fb
:020000040000fa
:0200000401f009
:04000c00fbff0000f6
:020000040000fa
:0200000401f009
:04001000beff00002f
:020000040000fa
:0200000401f009
:040014007cff00006d
:020000040000fa
:0200000401f009
:04001800ffff0000e6
:020000040000fa
:0200000401f009
:04001c00deff000003
:00000001FF
