:020000040000fa
:080000000002040000000000f2
:020000040000fa
:04000800bc03000035
:020000040000fa
:04000c00bc03000031
:020000040000fa
:04001000bc0300002d
:020000040000fa
:04001400bc03000029
:020000040000fa
:04001800bc03000025
:020000040000fa
:04001c00bc03000021
:020000040000fa
:04002000bc0300001d
:020000040000fa
:04002400bc03000019
:020000040000fa
:04002800bc03000015
:020000040000fa
:04002c00bc03000011
:020000040000fa
:04003000bc0300000d
:020000040000fa
:04003400bc03000009
:020000040000fa
:04003800bc03000005
:020000040000fa
:04003c00bc03000001
:020000040000fa
:04004000bc030000fd
:020000040000fa
:04004400bc030000f9
:020000040000fa
:04004800bc030000f5
:020000040000fa
:04004c00bc030000f1
:020000040000fa
:04005000bc030000ed
:020000040000fa
:040054004c03000059
:020000040000fa
:04005800bc030000e5
:020000040000fa
:04005c00bc030000e1
:020000040000fa
:04006000bc030000dd
:020000040000fa
:04006400bc030000d9
:020000040000fa
:04006800bc030000d5
:020000040000fa
:04006c00bc030000d1
:020000040000fa
:04007000bc030000cd
:020000040000fa
:04007400bc030000c9
:020000040000fa
:04007800bc030000c5
:020000040000fa
:04007c00bc030000c1
:020000040000fa
:04008000bc030000bd
:020000040000fa
:04008400bc030000b9
:020000040000fa
:04008800bc030000b5
:020000040000fa
:04008c00bc030000b1
:020000040000fa
:04009000bc030000ad
:020000040000fa
:04009400bc030000a9
:020000040000fa
:04009800bc030000a5
:020000040000fa
:04009c00bc030000a1
:020000040000fa
:0400a000e00200007a
:020000040000fa
:0400a400cc0200008a
:020000040000fa
:0400a800bc03000095
:020000040000fa
:0400ac00bc03000091
:020000040000fa
:0400b000bc0300008d
:020000040000fa
:0400b400bc03000089
:020000040000fa
:0400b800bc03000085
:020000040000fa
:0400bc00bc03000081
:020000040000fa
:0400c000bc0300007d
:020000040000fa
:0400c400bc03000079
:020000040000fa
:0400c800bc03000075
:020000040000fa
:0400cc00bc03000071
:020000040000fa
:0400d000bc0300006d
:020000040000fa
:0400d400bc03000069
:020000040000fa
:0400d800bc03000065
:020000040000fa
:0400dc00bc03000061
:020000040000fa
:0400e000bc0300005d
:020000040000fa
:0400e400bc03000059
:020000040000fa
:0400e800bc03000055
:020000040000fa
:0400ec00bc03000051
:020000040000fa
:0400f000bc0300004d
:020000040000fa
:0400f400bc03000049
:020000040000fa
:0400f800bc03000045
:020000040000fa
:0400fc00bc03000041
:020000040000fa
:04010000bc0300003c
:020000040000fa
:04010400bc03000038
:020000040000fa
:04010800bc03000034
:020000040000fa
:04010c00bc03000030
:020000040000fa
:04011000bc0300002c
:020000040000fa
:04011400bc03000028
:020000040000fa
:04011800bc03000024
:020000040000fa
:04011c00bc03000020
:020000040000fa
:04012000bc0300001c
:020000040000fa
:04012400bc03000018
:020000040000fa
:04012800bc03000014
:020000040000fa
:04012c00bc03000010
:020000040000fa
:04013000bc0300000c
:020000040000fa
:04013400bc03000008
:020000040000fa
:04013800bc03000004
:020000040000fa
:04013c00bc03000000
:020000040000fa
:04014000bc030000fc
:020000040000fa
:04014400bc030000f8
:020000040000fa
:04014800bc030000f4
:020000040000fa
:04014c00bc030000f0
:020000040000fa
:04015000bc030000ec
:020000040000fa
:04015400bc030000e8
:020000040000fa
:04015800bc030000e4
:020000040000fa
:04015c00bc030000e0
:020000040000fa
:04016000bc030000dc
:020000040000fa
:04016400bc030000d8
:020000040000fa
:04020800bc03000033
:020000040000fa
:04020c00bc0300002f
:020000040000fa
:04021000bc0300002b
:020000040000fa
:04021400bc03000027
:020000040000fa
:04021800bc03000023
:020000040000fa
:04021c00bc0300001f
:020000040000fa
:04022000bc0300001b
:020000040000fa
:04022400bc03000017
:020000040000fa
:04022800bc03000013
:020000040000fa
:04022c00bc0300000f
:020000040000fa
:04023000bc0300000b
:020000040000fa
:04023400bc03000007
:020000040000fa
:04023800bc03000003
:020000040000fa
:04023c00bc030000ff
:020000040000fa
:04024000bc030000fb
:020000040000fa
:04024400bc030000f7
:020000040000fa
:04024800bc030000f3
:020000040000fa
:04024c00bc030000ef
:020000040000fa
:04025000bc030000eb
:020000040000fa
:04025400bc030000e7
:020000040000fa
:04025800bc030000e3
:020000040000fa
:04025c00bc030000df
:020000040000fa
:04026000bc030000db
:020000040000fa
:04026400bc030000d7
:020000040000fa
:04026800bc030000d3
:020000040000fa
:04026c00bc030000cf
:020000040000fa
:04027000bc030000cb
:020000040000fa
:04027400bc030000c7
:020000040000fa
:04027800bc030000c3
:020000040000fa
:04027c00bc030000bf
:020000040000fa
:04028000bc030000bb
:020000040000fa
:04028400bc030000b7
:020000040000fa
:04028800bc030000b3
:020000040000fa
:04028c00bc030000af
:020000040000fa
:04029000bc030000ab
:020000040000fa
:04029400bc030000a7
:020000040000fa
:04029800bc030000a3
:020000040000fa
:04029c00bc0300009f
:020000040000fa
:0402a000bc0300009b
:020000040000fa
:0402a400bc03000097
:020000040000fa
:0402a800bc03000093
:020000040000fa
:0402ac00bc0300008f
:020000040000fa
:0402b000bc0300008b
:020000040000fa
:0402b400bc03000087
:020000040000fa
:0402b800bc03000083
:020000040000fa
:0402bc00bc0300007f
:020000040000fa
:0402c000bc0300007b
:020000040000fa
:0402c400bc03000077
:020000040000fa
:0402c800bc03000073
:020000040000fa
:0402cc00bc0300006f
:020000040000fa
:0402d000bc0300006b
:020000040000fa
:0402d400bc03000067
:020000040000fa
:0402d800bc03000063
:020000040000fa
:0402dc00bc0300005f
:020000040000fa
:0402e000bc0300005b
:020000040000fa
:0402e400bc03000057
:020000040000fa
:0402e800bc03000053
:020000040000fa
:0402ec00bc0300004f
:020000040000fa
:0402f000bc0300004b
:020000040000fa
:0402f400bc03000047
:020000040000fa
:0402f800bc03000043
:020000040000fa
:0402fc00bc0300003f
:020000040000fa
:04030000bc0300003a
:020000040000fa
:04030400bc03000036
:020000040000fa
:04030800bc03000032
:020000040000fa
:04030c00bc0300002e
:020000040000fa
:04031000bc0300002a
:020000040000fa
:04031400bc03000026
:020000040000fa
:04031800bc03000022
:020000040000fa
:04031c00bc0300001e
:020000040000fa
:04032000bc0300001a
:020000040000fa
:04032400bc03000016
:020000040000fa
:04032800bc03000012
:020000040000fa
:04032c00bc0300000e
:020000040000fa
:04033000bc0300000a
:020000040000fa
:04033400bc03000006
:020000040000fa
:04033800bc03000002
:020000040000fa
:04033c00bc030000fe
:020000040000fa
:04034000bc030000fa
:020000040000fa
:04034400bc030000f6
:020000040000fa
:04034800bc030000f2
:020000040000fa
:04034c00bc030000ee
:020000040000fa
:04035000bc030000ea
:020000040000fa
:04035400bc030000e6
:020000040000fa
:04035800bc030000e2
:020000040000fa
:04035c00bc030000de
:020000040000fa
:04036000bc030000da
:020000040000fa
:04036400bc030000d6
:020000040000fa
:10040000cfa420000e7f24000e0188000000000011
:10041000000020000000e000020032000001200087
:1004200020028800140007000a0107000000e00015
:1004300003003a00c08621000100200002003700be
:100440000000200001002000810f70000100320038
:1004500014000700000020000000e000020032004d
:1004600000000200000000002a1602000000000048
:100470000040da000000fe004440a90020212000d6
:100480000000e0000300320000002000a00188000e
:100490004440a800000006008a1f78008b1f7800e7
:1004a0000000060091018800800478000000eb0045
:1004b0001a003700e284440032a0b4009905ba0063
:1004c000e284440032a0b4009906ba00e2844400f9
:1004d00032a0b4000006eb00476fde00fd07b2005b
:1004e000636ce10003003a00ebff07000000eb0043
:1004f0000a003700606ce10004003a00005deb0088
:100500008b05e900fdff3e00040037006168e10053
:10051000010032000086eb000b00070019c7ba008b
:100520001905ba000e04e00003003a000a00e000da
:10053000e0ff3a0000000600fe07b2009e018800be
:100540008a047800f5ff3700395dba008b05e900b1
:100550000c003200295dba008b05e900080032006a
:100560000c00e00003003a00e284440032a0b40032
:10057000f5ff370019ddba008b05e900faff3a00f4
:100580008904e800e184440032a0b40000000600c1
:1005900066080400000000003400f800881f78009e
:1005a00008002000a80188004f0478000000fa002d
:1005b00087e0a9000080fa003400f900004006003e
:1005c000809fbe00821f78003400f80000002000e9
:1005d000a00188000200fa00b0118000004f7800ee
:1005e000504480000074a1008080fb00a003200024
:1005f000808f500022003c00504480000074a10015
:100600000081fb00e1842000810041009e487800c9
:100610000040e8000074a1008080fb00f00720008b
:10062000008060005244800001f82f0081006100ca
:10063000010070005044880020408000618020004c
:100640001e417800827078000000e8002040880099
:10065000504480000074a1000080fb008000e9008d
:10066000e084200000804000104078000004e0009a
:1006700003003a00504480000070a00050448800fd
:1006800087c0a9000080fa003400f9004f0178000b
:100690004f00be0000400600809fbe00829fbe004b
:1006a0003400f80000002000a00188000200fa00d9
:1006b00030118000004f78006090200010407800da
:1006c0000074a1008080fb00a0032000808f5000f8
:1006d00023003c0060902000104078000074a100ce
:1006e0008080fb00a28c20009e41780003f17800fe
:1006f0000040e8000074a100619020000074a10097
:100700009141780002c8b30002c16100004071004d
:100710008048780020408000618020001e417800e1
:10072000827078000000e80020408800609020007f
:10073000104078000074a1000080fb000000e90078
:10074000a18c2000614078000004e00004003a0021
:1007500060902000904078000174a000014878006b
:100760008560a9000080fa003400f9004f01be0046
:100770004f00be00004006000040da000000fe000e
:10078000889fbe0080047800505280000000e00086
:1007900004003a000e0007000084eb000000e000b7
:1007a00008003500585280000900e00005003200c2
:1007b00009004400060007000000e00001003d00c1
:1007c0000084eb00080078004f04be000000060023
:1007d000800078000100e00003003a0000002000e3
:1007e00050528800000005000080eb00020020004d
:1007f000828f500002003e00515288000000eb0042
:10080000000006000600fa00200798002e00900065
:1008100009020700100798000000eb00000f7800a5
:10082000060037001e007800ae00900000804000f7
:1008300010407800940907001e0fe8001e00900089
:100840009e007800808f5000f6ff35000080fa008f
:1008500000000600000005006022b800060220002b
:100860000000d0008180d2000482d2008582d200b4
:100870000000a0000202520083825a0003003100ef
:100880000202420083824a000000a1000603e90040
:10089000f3ff3a0000000600889fbe008a9fbe005a
:1008a00030044200b0844a0030054b0090854b0074
:1008b0006000b1000898be000a90be000440e1004c
:1008c00005c8e10006d0e10007d8e10002003100d0
:1008d000680040001008e8004f05be004f04be004d
:1008e00000000600889fbe008a9fbe003004be0044
:1008f0002005be000418540005985c0006185d0031
:1009000007985d00110020000440e10005c8e100e7
:1009100006d0e10007d8e100010039008000eb00bb
:10092000108810004f05be004f04be0000000600f6
:100930001200fa00889fbe008a9fbe008c9fbe00f6
:10094000e0b79f00f1b79f0082bf9f0093bf9f0059
:100950000605be000404be000000eb00d0b79f00f7
:10096000c0b79f00b0b79f00a0b79f0090b79f008f
:100970000006eb005fb19700cfb097008201410005
:100980003fb097000200e00004003d003700070080
:100990007e805700c0ff07000300370033000700c8
:1009a0007e805700cfff0700dfb697000d00e00004
:1009b0000c0035006fb29700ffb297000fbb970095
:1009c0009fbb970010002000010020006011b800bc
:1009d000000272008182720002037300838373003d
:1009e0001b0007000c06e80001042000810f5600e0
:1009f000e0ff3a000d00e00004003d000802be00e8
:100a00000a03be007e805700a3ff07005fa897007f
:100a10000000e00005003a001fb29700afb2970057
:100a20003fb39700cfb39700090007006fb097005e
:100a3000ffb097000fb997009fb997004f06be000f
:100a40004f05be004f04be000080fa000000060003
:100a50000100070000000600a4b79f00b5b79f0083
:100a6000c6b79f00d7b79f00000006004f09de0001
:100a700082817100b3b79f004f01de00818040008a
:100a800082807000a1b79f008fb097004f09de00f1
:100a9000000040000200700090b79f007fa8970000
:100aa0004f01de00818040008280700081b79f008e
:100ab0000d0007004f3ade00000040000400700007
:100ac000f0af9f00080007000402420085824a0040
:100ad00006034b0087834b00dfff07000802be00c0
:100ae0000a03be00000006002fb29700bfb29700b5
:100af0004fb39700dfb3970000000600881f78000f
:100b000018002000881f780089ff07008f87e90000
:100b10004f04780000000600801feb0084ff0700f0
:100b20008f87e90000000600889fbe008a9fbe00f4
:100b3000e00f5000e08f5800e00f5900e08f59009f
:100b40000c003d006044b8006055b800000054003f
:100b500081805c0002015d0083815d00180020003f
:100b60001500070008003d00180007000004eb0016
:100b7000050037000004eb000f00070002003d00f5
:100b80001200070018002000dcff07000800e0004a
:100b9000060032006022b8006033b8000000520046
:100ba00081805a0002015b0083815b004f05be001b
:100bb0004f04be0000000600e00f5200e08f5a0014
:100bc000e00f5b00e08f5b00000006006044b800af
:100bd0006055b8000402540085825c0006035d0085
:100be00087835d0000000600889fbe008a9fbe00cc
:100bf0008c1f7800e00f5000e08f5800e00f590084
:100c0000e08f59000d003d006044b8006055b80009
:100c10000000540081805c0002015d0083815d0062
:100c20001c0020000820e10009a8e1000ab0e10052
:100c30000bb8e1000d003d00080037000006eb0096
:100c4000e00f5200e08f5a00e00f5b00e08f5b0086
:100c500006003d006044b8006055b800040254002e
:100c600085825c0006035d0087835d00aaff0700a4
:100c70000c00e000060032006022b8006033b800cb
:100c80000000520081805a0002015b0083815b00fa
:100c90004f0678004f05be004f04be00000006005e
:100ca000889fbe008a9fbe008c1f78000006eb0064
:100cb000e00f5000e08f5800e00f5900e08f59001e
:100cc00007003d006044b8006055b80000005400c3
:100cd00081805c0002015d0083815d001c002000ba
:100ce000e00f5200e08f5a00e00f5b00e08f5b00e6
:100cf00007003d006044b8006055b800040254008d
:100d000085825c0006035d0087835d000c00a20005
:100d10000c0007000c00e000060032006022b80062
:100d20006033b8000000520081805a0002015b006d
:100d300083815b004f0678004f05be004f04be0064
:100d400000000600889fbe008a9fbe008c9fbe00e8
:100d50000404b8000506b8008904460060854e000a
:100d60000606b8000a054600e0854e000706b800f2
:100d70008b054600040eb800890446000a854e0023
:100d8000e0854d00050eb8000a0546008b854e0033
:100d9000060eb8008b0546000416b8000a0546008a
:100da0008b854e000516b8008b054600041eb80062
:100db0008b0546000800be000a01be004f06be00bb
:100dc0004f05be004f04be00000006000000e0001a
:100dd0002f003200c0017800e38f51002c00360054
:100de0000308a3002a003a00315280000100e0000d
:100df00002003200810f5000040031001100980001
:100e000030528800160037008200780011019000ef
:100e10000200e00002003200800f5100faff3900aa
:100e20001102780084824000850f500018003900bc
:100e3000808f520003003a008308420001007800ce
:100e4000070037000200e000030032008301400089
:100e5000830f51000e003900120098009000980096
:100e6000900090000100e0000900320010014000f5
:100e7000828f500006003a0042a420000009eb00d7
:100e800010017800110841009100900011009800b5
:100e900000000600889fbe000004780021528000f8
:100ea0000100e00002003200010078000d00370070
:100eb0003152800060a4200004003700910f5400dc
:100ec000250036000180e800910090000100e0005c
:100ed000faff3a0010003700920f54001e0036004f
:100ee0000280e800100178000200e000faff3a00fa
:100ef000110178003152800060a420000400370006
:100f0000910f5400140036000180e8009100900019
:100f1000828f5000faff3a0049528000888f5400b7
:100f20000100310088047800090078005d000700a6
:100f30000000e00004003a00888f540005003200f1
:100f40008904d100f5ff3700091878009fff0700da
:100f5000d2ff37000000eb004f04be000000060087
:100f6000881f7800630440000800a1008000eb00a7
:100f7000800f540021003600e30f540001003e00b2
:100f80004800200008007800c2ff07008000eb0046
:100f90000000e00019003200900078009101780014
:100fa00064815100880f510003003100110190004d
:100fb0000208780007003700088140000208780026
:100fc000910190001301980010017800110914009c
:100fd00088087800100178000000eb000200e000b3
:100fe00004003200920190000300e0000100320092
:100ff0000280e800205288008180e800010078002b
:101000004f04780000000600020037000304e000ef
:10101000060032000001780002007800b04178003c
:1010200081cf5100f9ff3a00010037000001eb00c9
:1010300002007800000006008000780001017800be
:101040003104e000fdff3a000000510000000600fe
:10105000889fbe0081047800194478000804e000ed
:101060000e00320006003700d24178000304e00091
:101070000a003200d1cf1100fbff32000000e8006f
:101080008800fb00e0ff07000000e00003003200e2
:101090000901780080007800f3ff37004f04be009c
:1010a00000000600800078000000eb000100e00076
:1010b0000500340001007800b1fd0700e10f400099
:1010c00001003a000000eb0000000600881f7800d5
:1010d0000204780008017800f901070008004000c8
:1010e0004f047800000006000000fa00881f780016
:1010f00000047800ea8157003fb997008800780023
:1011000060862000070007000000e00002003500b4
:101110008040eb00017478004f0478000080fa00f2
:10112000000006006200fa00889fbe008a1f780057
:1011300000057800810478000204780083007800bc
:1011400080f92f000f004000cf0307009a979f00ff
:10115000a9979f000000eb00b09f9f001885fb003f
:101160008a04fb000a05ea004f55de005002200009
:10117000808f54000d003200e10f55000b003a0043
:101180000a017800880078002f9097009f919700bf
:1011900003000100a0979f000000e0008e003200d5
:1011a0003f9897000000e800b09f9f000a044400a9
:1011b00050022000808f5400040032000900e0003b
:1011c000e6ff3a003f989700840037000000eb00ec
:1011d000909f9f00809f9f00f0979f00e0979f0047
:1011e000d0979f00c0979f0007003700e1a3200021
:1011f000010050000000400021a3200061007800a1
:10120000df98970001007000d09f9f00880478004d
:1012100009047800384578008a00fb00e0a320002c
:1012200079ff07000000e000f0ff3a00a1c2b30020
:10123000814f55000e003a00cf8897000180e900e9
:10124000c08f9f0010007800c09f9f000000e0004a
:1012500005003d000000ea00c09f9f005f989700d6
:101260000020a000d09f9f000904e8000f00370075
:10127000c09f9f000000eb0005003700f2ff270031
:10128000820f5000020032006a01b9000280400063
:101290000904780088047800b900fb000103b1005c
:1012a000e98f5000f5ff3600c09f9f00e0c2b300f9
:1012b000984f1000020032000080eb001900370048
:1012c000a0c2b300d84f100007003a00cf889700a3
:1012d0000180e900c08f9f0010007800a09f9f0050
:1012e0000804e800100037000000eb00a09f9f00fa
:1012f0008800780005003700f3ff2700830f5000b7
:10130000020032006a02b9000400410001047800c2
:10131000880078003101fb000203b100e90f5100a1
:10132000f5ff3600a09f9f00984478008900fb00dd
:10133000a0a2200034ff07000000e00002003200fd
:101340000804e800010037008044eb00c97f9f00db
:1013500080c6b30080cf540004003a0098cf140038
:101360000a003a006640500006003700c0c6b300cd
:1013700080cf540005003a0098cf140003003a00d3
:1013800065404000c07f9f000804e8001801fb0092
:10139000e3fb2f008f81410081f92f008f804000f7
:1013a000a0f92f000f004000100007000000e0002f
:1013b00009003a00e1fb2f008f804000a0f92f00c8
:1013c0000f004000740207000000e000020035003a
:1013d0000804e80061ff37000080eb004f0578004b
:1013e0004f04be000080fa0000000600889fbe0087
:1013f0008a1f780000047800e0c6b300804f5100d7
:10140000c100320015003c006b405000804f51007d
:10141000240032000a003c0070405000804f510010
:10142000fa00320065404000804f510068003200f1
:1014300050c2b300804f51000b013a000701370042
:1014400040c6b300804f51001b0032006540400091
:10145000804f510004013a001700370030c7b30035
:10146000804f5100e900320007003c00644050000a
:10147000804f5100560032000040e800804f51007c
:10148000f9003a00d300370050c7b300804f510035
:101490004f00320063404000804f5100f2003a009c
:1014a0004b0037001181e900820878007800900035
:1014b00012417800ea00370028609000c4c6b300eb
:1014c000844f500007003a00110278006400520077
:1014d000800878001002be004fabde008603780063
:1014e0001100370014c7b300844f500003003200ce
:1014f000a4c6b300844f500006003a0011027800e1
:1015000068005200800878003002be002003be0050
:10151000050037001180e90080087800100278008b
:10152000cfa2de00612bb900049cbe000694be0071
:101530002860900081c6b300814f50000d0032003a
:1015400021c6b300814f500004003a000402fb00a2
:10155000cfa2de00612bb9000800370041c7b300fd
:10156000814f500003003200e6c04000814f500020
:1015700004003a00cfa2de00612bb900049cbe003b
:101580000694be003802be002803be00780090001a
:10159000d1c2b300e00f5200e08f5a00e00f5b00b1
:1015a000e08f5b0008003500881090000118a30050
:1015b00002003200b1c2b300030037000108a300eb
:1015c0004c00320001c2b30081717800470037003f
:1015d00028609000c4c6b300844f500006003a0053
:1015e0001102780064005200800878001002be00ea
:1015f0006033b8001100370014c7b300844f5000a7
:1016000003003200a4c6b300844f500006003a0025
:101610001102780068005200800878003002be0095
:101620002003be00050037001180e9008008780023
:10163000100278008002eb006033b800049cbe000a
:101640000694be002860900081c6b300814f500010
:101650000d00320021c6b300814f500004003a0053
:101660000482fb008002eb006033b8000800370002
:1016700041c7b300814f500003003200e6c0400074
:10168000814f500004003a008002eb006033b80044
:10169000049cbe000694be00081090000038a30011
:1016a000140032003802be002803be00e00f5200d2
:1016b000e08f5a00e00f5b00e08f5b000d0032000e
:1016c00080c7b300804f51000300320080c5b300d3
:1016d000804f510007003a007800900001c3b3002a
:1016e000817178000000e800827178000000e80055
:1016f0007004980078009000808141006304980095
:10170000824078003e00370028619000c3c6b300d5
:101710001180e900834f5100220032000a003c0092
:10172000e4c15100834f51002500320083c1e8001d
:10173000834f510013003200e8c15100834f510024
:101740001e003a000a00370043c7b300834f510020
:101750001b003200e6c14100834f510018003200e7
:10176000e9c15100834f510014003a0005003700d1
:101770008008780010007800485c900008487800e5
:10178000410037008008780010007800680a900057
:10179000cfa2de00612bb9000498be000690be0007
:1017a0003900370080087800100078006809900040
:1017b000cf91de000288be00330037001180e900bf
:1017c0008008780010007800680c90000808780005
:1017d0002d0037001180e9008008780010027800a1
:1017e000cfa2de00612bb900049cbe000694be00af
:1017f00078009000808141006304980081c7b300a5
:1018000008007800350007001f0037001180e9004c
:1018100080087800100578006a049800d80c9000c1
:101820000900e00004003d000a00780002fe070005
:101830008004780007003700090178008000eb0081
:101840000a007800140007000000e00001003200e8
:101850008a045000190c98000b00370078009000a3
:101860008271780006003700780090008081410086
:101870000204e00001003a0052c2b300824978003d
:101880000000e800700498000000eb004f057800ad
:101890004f04be000000060003003700b0cf100068
:1018a000050032000201e900800178000200e0003a
:1018b000faff3a000000050003007800000006006f
:1018c0008001780002003700b15978000201e90078
:1018d0000200e000fcff3a0000000600fc87470021
:1018e000889fbe008a9fbe008c9fbe008e1f78001e
:1018f0000006780080c5b30080cf50000a00320097
:101900007740400080cf50000a003200694040001c
:1019100080cf50000b00320090a1200080bf9f00bc
:10192000ae0020000a00370082a0200082bf9f0086
:101930000600370093a1200083bf9f008e00200087
:101940000300370094a1200084bf9f000e012000f7
:101950003c02be002c03be000605be000404be000f
:1019600040c6b30080cf5000030032006540400005
:1019700080cf50000b003a00e00f5200e08f5a0079
:10198000e00f5b00e08f5b0006003d006000b800e8
:101990006011b80004045000858458000605590001
:1019a00087855900e80f57000400320040002000ee
:1019b000f00f570038003a000100370030002000d7
:1019c000e00f5400e08f5c00e00f5d00e08f5d00f1
:1019d00004003a00dc0890008d0120000100e000c6
:1019e000060032008e00e900888060008fba970000
:1019f000e5c07800f1ef9f007d01200080007800b5
:101a00008100e900050033008b05d1000a85d30071
:101a10008984d3000884d300f9ff3700089ebe00f4
:101a20000a96be00120037008d06e9008e00e9001c
:101a3000848060000fb99700e2c1780082fd2f001a
:101a40000f01410003f17e00800078008100e90071
:101a5000050033008783d1000683d3008582d3003d
:101a60000482d300f9ff3700049ebe000696be0034
:101a70003c02be002c03be00e00f5200e08f5a0073
:101a8000e00f5b00e08f5b008b0034000d00e00096
:101a9000e5ff3c00880037002c60900081c6b30051
:101aa000814f50000b00320006003c000004e000b3
:101ab00008003200e6c05000814f50004e003a004e
:101ac00004003700c1c6b300814f50004a003a00fd
:101ad000210037000800e00004003a005c08900094
:101ae0008d0120000000e000060032001100090016
:101af0000e84d8000fb99700e2c07800f1ef9f0084
:101b00007d012000110009000e84d8000a00370072
:101b1000110009000e04d8008d06e9000e81b900fd
:101b2000020454008fb8970061417c0081fd2f00b2
:101b30008f80400082f07e00000478000800e00002
:101b4000020032000d00e000f1ff3c00cfc4de00d7
:101b5000614db90025003700e00f5400e08f5c00b4
:101b600004003a005c0890008d0120000000e000b5
:101b7000070032006171b9000800be005301070080
:101b80008fb99700e3417800f3ef9f007d012000bb
:101b90006171b9000800be002ffb07000b00370081
:101ba0006171b9000800be00390107008d06e90027
:101bb00000f1b900020454000fba9700e4427c001f
:101bc00084fd2f000f02420005f27e000004be00db
:101bd000e00f5000e08f5800020032000d00e000de
:101be000efff3c004fcdde008a057800089ebe0066
:101bf0000a96be0030003700e00f5400e08f5c0012
:101c0000e00f5d00e08f5d0004003a005c0890008a
:101c10008d0120000000e000090032006172b9006f
:101c2000612bb9000800be000a01be00bafb070024
:101c30000fba970064427800f4ef9f007d01200006
:101c40006172b900612bb9000800be000a01be0034
:101c5000aafb07000d0037006172b900612bb900c3
:101c60000800be000a01be00affb07008d06e900b8
:101c700000f2b900040454008fba970065427c005a
:101c800085fd2f008f82420084f27e00009ebe0000
:101c90000296be003c04be002c05be00e00f5400be
:101ca000e08f5c00e00f5d00e08f5d00020034001b
:101cb0000d00e000e8ff3c00e80f570010003a007c
:101cc0000c1090000038a3000d003200f78f560072
:101cd00006003e0085fd2f008f824200e5c07e0099
:101ce00000c3b30080cf5000050032008d06e9002c
:101cf00002c3b30081fd2f008f80400082f07e0080
:101d000078811600120e98006c00900083fd2f0061
:101d10008f8141008d804100e9fe07001c08900082
:101d2000dc089000810f500006003d00008050004c
:101d3000000e98000c1090000040a10000169800c2
:101d40000f0037000100e0000d003d008c109000f6
:101d5000f4806000f08f500009003a007c09900088
:101d6000fc009000810051000c099000828050001e
:101d7000008050004240a90001003400000e98008d
:101d80004f0778004f06be004f05be004f04be004f
:101d9000cf01b100000006000400fa00889fbe00d9
:101da0008a9fbe008c1f780000047800010678002e
:101db000f80d90007800900080855500080890008c
:101dc00080855500180890008085550028089000ef
:101dd000808555003808900080855500480890009f
:101de000808555000002220090bf9f000003230061
:101df000a0bf9f00081090000028a30015003a0023
:101e00000b00e000130034000b0578008a04780012
:101e1000e20f55000100360029002000c8019000a3
:101e200009017800ee80570058009000030001007f
:101e3000500498000000e0008c0032006808900018
:101e400009004000600c9800090555004240a900b7
:101e5000eeff3c00780190000200e0000c0034002e
:101e6000c80190008c007800580090000300010029
:101e7000500498008080eb000000e0007c003200fd
:101e8000e80890007800900000804000600c980006
:101e9000880c90000900e00011003400090578006a
:101ea000e28f5400010036002a002000c801900093
:101eb0000a017800ec8057005800900003000100f0
:101ec000500498000000e0006800320068089000ac
:101ed0000a004000600c98008a845400edff37002f
:101ee000180990000200e0000c003400c8019000c6
:101ef000e800900058009000030001005004980092
:101f00008080eb000000e00059003200e8089000fb
:101f10001808900000804000600c9800a80c900009
:101f20000900e0001100340009057800e28f540038
:101f3000010036002a002000c80190000a01780044
:101f4000ec805700580090000300010050049800f6
:101f50000000e00045003200680890000a004000e0
:101f6000600c98008a845400edff37003809900017
:101f70000200e0000e003400e80090001808900015
:101f800080804000c80190005800900003000100cc
:101f9000500498008080eb000000e0003400320024
:101fa000e80890003808900000804000600c98001d
:101fb000c80c90000900e000110034000905780009
:101fc000e28f5400010036002a002000c801900072
:101fd0000a017800ec8057005800900003000100cf
:101fe000500498000000e0002000320068089000d3
:101ff0000a004000600c98008a845400edff37000e
:10200000081090008000eb000028a30018003200a8
:102010000b00e000160034008b04780009057800fe
:10202000e28f5400010036002a002000c801900011
:102030000a017800ee80570058009000030001006c
:10204000500498000000e00008003200680890008a
:102050000a004000600c98008a8454004240a900a5
:10206000eeff3c008000eb00010037008080eb00b9
:10207000010078004f0678004f05be004f04be00f7
:102080000080fa0000000600010878000000060049
:10209000839f68000100e00002003d006000100026
:1020a000e08018000300e00002003d006001110024
:1020b000e0811900e8f907004f00e00002003b0052
:1020c00060001000e080180000000600e2f9070040
:0820d0000400be000000060040
:020000040000fa
:1020d800415400002b4300004950000053450000c4
:1020e8004e4400003d250000640d00000a00000079
:1020f8003e20000000530000454e00004420000030
:102108004f4b0000004f00004b00000041540000fe
:102118000d0a00000072000065610000647900008b
:1021280000410000542b000052530000540d0000e1
:102138000a000000415400002b430000574d0000e6
:102148004f440000453d0000310d00000a0000002a
:10215800415400002b430000574d00004f4400003d
:10216800453d0000320d00000a0000004154000007
:102178002b430000574d00004f440000453d000030
:10218800330d00000a000000415400002b430000fa
:10219800574a0000415000003d220000257300000e
:1021a800222c000022250000732200000d0a0000e6
:1021b800004300004f4e00004e450000435400000d
:1021c8004544000000410000542b00004357000024
:1021d80053410000503d00002225000073220000fa
:1021e8002c22000025730000222c0000312c000056
:1021f800257300000d0a0000005400004350000041
:102208000022000025730000222c00002225000077
:10221800732200002c250000730d00000a00000046
:102228005544000050000000415400002b430000ba
:10223800495000005354000041520000543d000032
:10224800256400002c250000730d00000a00000022
:10225800415400002b430000495000005354000033
:1022680041520000543d0000257300000d0a000093
:10227800004100004c520000454100005920000078
:10228800434f00004e4e000045430000540000003c
:102298002b430000574d00004f440000453a000012
:1022a80032000000415400002b430000574d00004d
:1022b8004f440000453f00000d0a0000002b0000bd
:1022c800435700004d4f0000444500003a310000dc
:1022d80000340000007a0000783400003532000035
:1022e8003233000033310000004b0000454e00003f
:1022f80000410000542b000043490000504d0000ed
:10230800555800003d3000000d0a00000041000053
:10231800542b000043490000504d00004f4400007a
:10232800453d0000300d00000a0000004154000047
:102338002b430000495000004d550000583d000057
:10234800310d00000a000000415400002b4300003a
:102358004950000053450000525600004552000005
:102368003d3100002c35000030300000300d0000f9
:102378000a000000415400002b43000057510000a0
:10238800415000000d0a0000003100003039000003
:1023980039330000303400003200000045450000a9
:1023a8003530000031000000415400002b4300008c
:1023b800495000004d4f0000444500003d310000e9
:1023c8000d0a000000380000300000006d610000b8
:1023d8006b650000722e00006966000074740000ce
:1023e800742e0000636f00006d0000004745000078
:1023f800542000002f740000726900006767000015
:10240800657200002f6c0000696e0000652f0000e7
:1024180077690000746800002f6b00006579000080
:102428002f6300004f59000067300000572d00004f
:10243800766b0000794400005a3600005a650000a7
:10244800523400006362000064630000593f0000da
:10245800766100006c750000653100003d250000c4
:1024680073260000766100006c750000653200007c
:102478003d25000073260000766100006c750000a1
:10248800653300003d25000073200000485400001b
:10249800545000002f3100002e3100000d0a0000ba
:1024a800486f0000737400003a2000006d6100005e
:1024b8006b650000722e00006966000074740000ed
:1024c800742e0000636f00006d0d00000a0d0000ff
:1024d8000a000000333300003300000032320000ed
:1024e8003200000031310000310000004f4b000085
:0424f80000000000e0
:020000040000fa
:1024fc000800fa00000f78001107980022079800d6
:10250c00330798005144800000f82f0000806000d1
:10251c00504488000428ef001e007800b6f807002d
:10252c001e0090000000e00005003a002e00900014
:10253c000000e00002003a0010c0b3003800370081
:10254c003e0090008000eb006011b80004a0250054
:10255c00252620006033b800cef90700843e200009
:10256c00050020006033b80061f907000000be00d0
:10257c0008030700504480000074a1008080fb0019
:10258c00e0842000008040008040eb00014878008f
:10259c00504480000070a000504488001e00900041
:1025ac000000e000120032002e0090000000e0005d
:1025bc000f0032009e009000e0842000a1fa07007a
:1025cc000000e00005003a00ae009000e08420001e
:1025dc009cfa07000000e00002003200100020000e
:1025ec00010037000000eb00004078000c003700c1
:1025fc001e0090000000e000050032009e009000dc
:10260c00e08420008ffa07000040780004003700b7
:10261c00ae009000e08420008afa070000407800a9
:10262c000080fa00000006001a00fa00300f980033
:10263c00410f98000000eb00000f78000e80e800be
:10264c00ce089000811f7800c1062900811f7800f8
:10265c00a2fa0700e48757000e80e800833e2000b2
:10266c000001eb00c1072900a1ff0700833e2000f9
:10267c000001eb00f10729003e0890009cff0700c9
:10268c000080fb00000f78001e00780000407800ee
:10269c000080fa00000006000000fa0000000000b4
:1026ac00833e20000001eb0071082900a0082900de
:1026bc008fff07000004e000f9ff32000080fa00f1
:1026cc00000006000000fa00c3da2000f20829001e
:1026dc00710829005009290085ff07000080fa00c5
:1026ec00000006000200fa00000f78001e007800bf
:1026fc00e10f50000b003200e10f500003003900d5
:10270c00e20f50000d00320012003700439c2000f5
:10271c000001eb0071082900e009290074ff070093
:10272c000d003700439c20000001eb0071082900cc
:10273c00c00a29006eff070007003700439c2000e9
:10274c000001eb0071082900a00b290068ff0700ad
:10275c00010037000040eb000080fa00000006008a
:10276c007c00fa00403f9800513f9800de38900002
:10277c00811f7800ce389000811f7800800c2900d2
:10278c00801f78000e00780054fa0700e687570087
:10279c0083b52100d20d2900710829000e007800a4
:1027ac0053ff07000080fa00000006007e00fa00cc
:1027bc00403f9800513f9800623f9800ee389000df
:1027cc00811f7800de389000811f7800ce38900091
:1027dc00811f7800700e2900801f78000e00780091
:1027ec003efa0700e8875700833e20000001eb000b
:1027fc00710829000e0078003dff07000080fa00e8
:10280c0000000600e400fa0060af980071af980079
:10281c0002b7980013b7980031000900001feb00b5
:10282c004e06b1006ea890000000e00003003200dc
:10283c00e10f50000d003200180037008eb09000f0
:10284c00811f7800fea89000811f780010102900cd
:10285c00801f780050102900801f78000e0078002f
:10286c001efa0700e88757000c0037008eb0900066
:10287c00811f7800fea89000811f7800401129006c
:10288c00801f780050102900801f78000e007800ff
:10289c0012fa0700e8875700000000001eb09000f5
:1028ac00e40f50000a003c00400620000e004000df
:1028bc008e1f78009eb09000811f78008111290036
:1028cc00811f780005fa0700e687570007003700dc
:1028dc00400620000e0040008e1f7800c112290017
:1028ec00811f7800fdf90700e4875700400620009f
:1028fc000e00400083bb2000d21329007108290070
:10290c00fbfe07000080fa00000006000000fa0041
:10291c001000200073ff070000000000833e200021
:10292c0072082900c114290060152900f0fe070067
:10293c000004e000f9ff32000080fa0000000600fd
:10294c000000fa000000eb0066ff0700000000002a
:10295c004306200072082900311629006015290051
:10296c00e3fe07000004e000f9ff32000080fa00eb
:10297c00000006000000fa0047ff070051ff0700a7
:10298c00e2ff070000000000d2162900f116290012
:10299c009017290085ff07000004e000faff3200c1
:1029ac0000000000431f20000001eb00710829000b
:1029bc00d0172900cefe07000004e000f9ff32001a
:1029cc0000000000833e20000001eb00710829008c
:1029dc00b0182900c6fe07000004e000f9ff320021
:1029ec0000000000431f20000001eb0071082900cb
:1029fc00a0192900befe07000004e000f9ff320018
:102a0c0000000000431f20000001eb0071082900aa
:102a1c00801a2900b6fe07000004e000f9ff32001e
:102a2c000080fa00000006000000fa0025ff0700f5
:102a3c0019ff0700431f20000001eb00710829005b
:102a4c00e01b2900aafe0700bdff070000000000e4
:102a5c00911c2900201d290041ff07000004e00003
:102a6c00fbff320000000000431f20000001eb00c0
:102a7c0071082900801d29009dfe07000004e0005c
:102a8c00f9ff320000000000431f20000001eb00a2
:102a9c0071082900d017290095fe07000004e000fa
:102aac00f9ff32000080fa00000006000a00fa006c
:102abc002007980031079800420798007300200007
:102acc00721e2900a11e29000000eb004dff07001b
:102adc00ce009000811f7800be009000811f78000e
:102aec00ae009000811f7800a01f2900801f780085
:102afc001e00780079f90700e88757001e0078005f
:102b0c004af90700100798001e009000800078001a
:102b1c001e007800c4fe07000080fa0000000600ca
:102b2c000400fa0045e7a9004567a900213a800096
:102b3c00f0ff280000806000203a8800213a8000d5
:102b4c0000fe2f00008060002001b300203a8800b6
:102b5c00e0092000303a8800213a8000f0f32f0081
:102b6c0000806000203a880011028000f0f12f00f4
:102b7c000080600010028800803e2000000f78006a
:102b8c000a003700803e2000100798000300370031
:102b9c001e0090000000e900100798001e00900035
:102bac000000e000faff3c001e0fe9001e00780058
:102bbc000000e000f3ff3c000080fa00000006007b
:102bcc000000fa000080eb00401688000080eb004b
:102bdc00301688000080eb00401688000080eb0067
:102bec0070168800cc22ef000080eb007016880075
:102bfc000080eb00a0168800d222ef000080eb00d2
:102c0c00a01688000080eb00d0168800d822ef00b8
:102c1c000080eb00d01688000080eb0000178800c5
:102c2c00de22ef000080eb00001788000080eb0034
:102c3c0030178800e422ef000080eb00301788008a
:102c4c000080fa00000006000600fa00b4ff07003e
:102c5c0000000000103a8000680060000000e000f6
:102c6c00fcff3a0000000000113a80000000270031
:102c7c008080600000002300808f5000faff3a0033
:102c8c0000000000113a800000022000008060006b
:102c9c000000e000fbff3200c9ff0700d762a8006c
:102cac0000202c00b1be20003a010700d762a90019
:102cbc00d362a80000202c00110020002b0007007c
:102ccc0000582200010020004a00070056ff0700b0
:102cdc00e2262900212729006027290073ff07001d
:102cec000000eb00200798000100370000000000f6
:102cfc006e000700100798001e0090000000e00016
:102d0c0007003200640047009e009000b5000700e9
:102d1c00a2272900a1272900a027290063ff07006b
:102d2c00a116800000802000008060000000e00000
:102d3c00eeff3200ae009000010f78000700370064
:102d4c001e80e800a2272900a127290057ff0700b1
:102d5c001e007800b0009000010f78001e00780073
:102d6c000000e000f6ff3a00e1ff37000400fa0033
:102d7c00008fbe003022ef003162a800811180006c
:102d8c0090ff2f0000806000801188003002a900a5
:102d9c003062a9003082a90033a2a90033e2a90055
:102dac0091118000f0f32f000080600090118800da
:102dbc001e01be00005a220061022000a3f607008b
:102dcc00000078000000e900c0118800de82a80035
:102ddc00dea2a90087e0a90097e0a90087c0a9009e
:102dec0097c0a80031e2a8003342a8000080fa0086
:102dfc00000006000400fa00008fbe002022ef0045
:102e0c002162a8000111800090ff2f00008060005b
:102e1c00001188002002a9002062a9002082a900cc
:102e2c0023a2a90023e2a90011118000f0f32f00c6
:102e3c0000806000101188001e01be00005a2200a4
:102e4c006102200081f60700000078000000e90014
:102e5c0040118800de42a800de62a9008580a9002e
:102e6c009580a9008560a9009560a80021e2a800c2
:102e7c002342a8000080fa00000006000200fa00bd
:102e8c00004f78000000000091118000002020000d
:102e9c00008060000000e000fbff3a001e80fb0099
:102eac00a01188000080fa00000006000200fa0061
:102ebc000000eb00000f78006090200010417800bb
:102ecc0001c8b30081406100014878001102200064
:102edc00a08c200049f80700004078000004e000b6
:102eec0013003200609020001041780001c8b3003c
:102efc00814061000148780060902000904078008b
:102f0c000174a100014878000000000060902000ce
:102f1c009040780000c8b30000c060000004e000de
:102f2c00faff3200a08c2000000f7800020037005e
:102f3c000000eb00000f78001e0078000080fa0003
:102f4c00000006000400fa0010079800a000200002
:102f5c0000f80700000f78001e0090001040780069
:102f6c00804078001e007800014878001e00900018
:102f7c000000e80010407800804078001e007800c7
:102f8c00114098001e0090000080e800104078006e
:102f9c00804078001e007800214098001e009000b0
:102fac006300400010407800804078001e007800dc
:102fbc00314098001e0090006400400010407800e2
:102fcc00804078001e007800414098001e00780078
:102fdc008000eb00310098001e0078000080fa00a1
:102fec00000006000800fa0020079800310798003e
:102ffc003e009000d3ff0700100798002e009000b1
:10300c00100078000000e000130032002e00900049
:10301c00100f7800030037001e007800b0009000fd
:10302c00010f78001e007800300090000000e000d6
:10303c00f9ff3a003e009000c2ff07009e007800a6
:10304c00b00098001e007800300090009e007800c0
:10305c0041009800070037002e0090009e00900061
:10306c00010878002e009000100078008000eb0022
:10307c00410098000080fa00000006000600fa00eb
:10308c00000f780011079800220798002e0090007e
:10309c000000e000050032001e009000b00090001f
:1030ac002e00900031009800040037001e009000a4
:1030bc00b00090001e007800010878001e009000ff
:0c30cc003ff707000080fa00000006003b
:020000040000fa
:1030d80008090000000100000000000000080000ce
:1030e80004000000000000000608000002010000c3
:1030f80000000000040800000200000000000000ba
:10310800480a00000200000002000000040000005d
:10311800440a000004000000000000002a0a000021
:103128001a00000002000000686a6c00747a4c0003
:103138000000010000020000040008000010000068
:10314800000020002b2d230030000000080a00009a
:103158002200000002000000303132003334350014
:1031680036373800394142004344450046003000b4
:103178003132330034353600373839006162630044
:1031880064656600000000004a0a000002000000b2
:0831980000000000000000002f
:020000040000fa
:1031a000f03fb1000180b10006003500ee030900d8
:1031b00000000000403fb1000180b100fbff3d0076
:1031c0001000b000203fb000020035000080090070
:0831d0000000000000000600f1
:020000040000fa
:0200000401f009
:04000000ffff0000fe
:020000040000fa
:0200000401f009
:04000400ffff0000fa
:020000040000fa
:0200000401f009
:04000800faff0000fb
:020000040000fa
:0200000401f009
:04000c00fbff0000f6
:020000040000fa
:0200000401f009
:04001000beff00002f
:020000040000fa
:0200000401f009
:040014007cff00006d
:020000040000fa
:0200000401f009
:04001800ffff0000e6
:020000040000fa
:0200000401f009
:04001c00deff000003
:00000001FF
